{
  "_format": "hh-sol-artifact-1",
  "contractName": "TipJar",
  "sourceName": "contracts/TipJar.sol",
  "abi": [
    {
      "inputs": [],
      "stateMutability": "nonpayable",
      "type": "constructor"
    },
    {
      "anonymous": false,
      "inputs": [
        {
          "indexed": true,
          "internalType": "address",
          "name": "from",
          "type": "address"
        },
        {
          "indexed": false,
          "internalType": "uint256",
          "name": "amount",
          "type": "uint256"
        },
        {
          "indexed": false,
          "internalType": "string",
          "name": "message",
          "type": "string"
        }
      ],
      "name": "NewTip",
      "type": "event"
    },
    {
      "anonymous": false,
      "inputs": [
        {
          "indexed": false,
          "internalType": "uint256",
          "name": "amount",
          "type": "uint256"
        },
        {
          "indexed": false,
          "internalType": "uint256",
          "name": "when",
          "type": "uint256"
        }
      ],
      "name": "Withdrawal",
      "type": "event"
    },
    {
      "inputs": [],
      "name": "getBalance",
      "outputs": [
        {
          "internalType": "uint256",
          "name": "",
          "type": "uint256"
        }
      ],
      "stateMutability": "view",
      "type": "function"
    },
    {
      "inputs": [],
      "name": "owner",
      "outputs": [
        {
          "internalType": "address payable",
          "name": "",
          "type": "address"
        }
      ],
      "stateMutability": "view",
      "type": "function"
    },
    {
      "inputs": [
        {
          "internalType": "string",
          "name": "_message",
          "type": "string"
        }
      ],
      "name": "tip",
      "outputs": [],
      "stateMutability": "payable",
      "type": "function"
    },
    {
      "inputs": [
        {
          "internalType": "uint256",
          "name": "",
          "type": "uint256"
        }
      ],
      "name": "tipHistory",
      "outputs": [
        {
          "internalType": "address",
          "name": "tipper",
          "type": "address"
        },
        {
          "internalType": "string",
          "name": "message",
          "type": "string"
        },
        {
          "internalType": "uint256",
          "name": "timestamp",
          "type": "uint256"
        },
        {
          "internalType": "uint256",
          "name": "amount",
          "type": "uint256"
        }
      ],
      "stateMutability": "view",
      "type": "function"
    },
    {
      "inputs": [
        {
          "internalType": "address",
          "name": "",
          "type": "address"
        },
        {
          "internalType": "uint256",
          "name": "",
          "type": "uint256"
        }
      ],
      "name": "tipsData",
      "outputs": [
        {
          "internalType": "address",
          "name": "tipper",
          "type": "address"
        },
        {
          "internalType": "string",
          "name": "message",
          "type": "string"
        },
        {
          "internalType": "uint256",
          "name": "timestamp",
          "type": "uint256"
        },
        {
          "internalType": "uint256",
          "name": "amount",
          "type": "uint256"
        }
      ],
      "stateMutability": "view",
      "type": "function"
    },
    {
      "inputs": [],
      "name": "withdraw",
      "outputs": [],
      "stateMutability": "nonpayable",
      "type": "function"
    },
    {
      "stateMutability": "payable",
      "type": "receive"
    }
  ],
  "bytecode": "0x6080604052348015600f57600080fd5b5033600160006101000a81548173ffffffffffffffffffffffffffffffffffffffff021916908373ffffffffffffffffffffffffffffffffffffffff160217905550611254806100606000396000f3fe6080604052600436106100595760003560e01c806312065fe01461013a5780633ccfd60b146101655780638da5cb5b1461017c578063cb56393c146101a7578063e3aacbe2146101c3578063ef06560a1461020357610135565b3661013557600034116100a1576040517f08c379a000000000000000000000000000000000000000000000000000000000815260040161009890610916565b60405180910390fd5b600073ffffffffffffffffffffffffffffffffffffffff163373ffffffffffffffffffffffffffffffffffffffff1603610110576040517f08c379a000000000000000000000000000000000000000000000000000000000815260040161010790610982565b60405180910390fd5b61013333346040518060600160405280602e81526020016111f1602e9139610243565b005b600080fd5b34801561014657600080fd5b5061014f61044e565b60405161015c91906109bb565b60405180910390f35b34801561017157600080fd5b5061017a610456565b005b34801561018857600080fd5b506101916105f6565b60405161019e9190610a17565b60405180910390f35b6101c160048036038101906101bc9190610b8c565b61061c565b005b3480156101cf57600080fd5b506101ea60048036038101906101e59190610c01565b6106dc565b6040516101fa9493929190610cbd565b60405180910390f35b34801561020f57600080fd5b5061022a60048036038101906102259190610d35565b6107c4565b60405161023a9493929190610cbd565b60405180910390f35b600060405180608001604052808573ffffffffffffffffffffffffffffffffffffffff168152602001838152602001428152602001848152509050600281908060018154018082558091505060019003906000526020600020906004020160009091909190915060008201518160000160006101000a81548173ffffffffffffffffffffffffffffffffffffffff021916908373ffffffffffffffffffffffffffffffffffffffff16021790555060208201518160010190816103069190610f81565b50604082015181600201556060820151816003015550506000808573ffffffffffffffffffffffffffffffffffffffff1673ffffffffffffffffffffffffffffffffffffffff16815260200190815260200160002081908060018154018082558091505060019003906000526020600020906004020160009091909190915060008201518160000160006101000a81548173ffffffffffffffffffffffffffffffffffffffff021916908373ffffffffffffffffffffffffffffffffffffffff16021790555060208201518160010190816103e19190610f81565b50604082015181600201556060820151816003015550508373ffffffffffffffffffffffffffffffffffffffff167f2edbe3c16cfdf7d59d3418a7bebc467863d7aee89bc4da07262936cf15fb49718484604051610440929190611053565b60405180910390a250505050565b600047905090565b600160009054906101000a900473ffffffffffffffffffffffffffffffffffffffff1673ffffffffffffffffffffffffffffffffffffffff163373ffffffffffffffffffffffffffffffffffffffff16146104e6576040517f08c379a00000000000000000000000000000000000000000000000000000000081526004016104dd906110f5565b60405180910390fd5b60004790506000600160009054906101000a900473ffffffffffffffffffffffffffffffffffffffff1673ffffffffffffffffffffffffffffffffffffffff168260405161053390611146565b60006040518083038185875af1925050503d8060008114610570576040519150601f19603f3d011682016040523d82523d6000602084013e610575565b606091505b50509050806105b9576040517f08c379a00000000000000000000000000000000000000000000000000000000081526004016105b0906111a7565b60405180910390fd5b7fbf2ed60bd5b5965d685680c01195c9514e4382e28e3a5a2d2d5244bf59411b9382426040516105ea9291906111c7565b60405180910390a15050565b600160009054906101000a900473ffffffffffffffffffffffffffffffffffffffff1681565b6000341161065f576040517f08c379a000000000000000000000000000000000000000000000000000000000815260040161065690610916565b60405180910390fd5b600073ffffffffffffffffffffffffffffffffffffffff163373ffffffffffffffffffffffffffffffffffffffff16036106ce576040517f08c379a00000000000000000000000000000000000000000000000000000000081526004016106c590610982565b60405180910390fd5b6106d9333483610243565b50565b600281815481106106ec57600080fd5b90600052602060002090600402016000915090508060000160009054906101000a900473ffffffffffffffffffffffffffffffffffffffff169080600101805461073590610da4565b80601f016020809104026020016040519081016040528092919081815260200182805461076190610da4565b80156107ae5780601f10610783576101008083540402835291602001916107ae565b820191906000526020600020905b81548152906001019060200180831161079157829003601f168201915b5050505050908060020154908060030154905084565b600060205281600052604060002081815481106107e057600080fd5b9060005260206000209060040201600091509150508060000160009054906101000a900473ffffffffffffffffffffffffffffffffffffffff169080600101805461082a90610da4565b80601f016020809104026020016040519081016040528092919081815260200182805461085690610da4565b80156108a35780601f10610878576101008083540402835291602001916108a3565b820191906000526020600020905b81548152906001019060200180831161088657829003601f168201915b5050505050908060020154908060030154905084565b600082825260208201905092915050565b7f596f752063616e6e6f742073656e642030206574680000000000000000000000600082015250565b60006109006015836108b9565b915061090b826108ca565b602082019050919050565b6000602082019050818103600083015261092f816108f3565b9050919050565b7f63616e6e6f74206265206465207a65726f206164647265737300000000000000600082015250565b600061096c6019836108b9565b915061097782610936565b602082019050919050565b6000602082019050818103600083015261099b8161095f565b9050919050565b6000819050919050565b6109b5816109a2565b82525050565b60006020820190506109d060008301846109ac565b92915050565b600073ffffffffffffffffffffffffffffffffffffffff82169050919050565b6000610a01826109d6565b9050919050565b610a11816109f6565b82525050565b6000602082019050610a2c6000830184610a08565b92915050565b6000604051905090565b600080fd5b600080fd5b600080fd5b600080fd5b6000601f19601f8301169050919050565b7f4e487b7100000000000000000000000000000000000000000000000000000000600052604160045260246000fd5b610a9982610a50565b810181811067ffffffffffffffff82111715610ab857610ab7610a61565b5b80604052505050565b6000610acb610a32565b9050610ad78282610a90565b919050565b600067ffffffffffffffff821115610af757610af6610a61565b5b610b0082610a50565b9050602081019050919050565b82818337600083830152505050565b6000610b2f610b2a84610adc565b610ac1565b905082815260208101848484011115610b4b57610b4a610a4b565b5b610b56848285610b0d565b509392505050565b600082601f830112610b7357610b72610a46565b5b8135610b83848260208601610b1c565b91505092915050565b600060208284031215610ba257610ba1610a3c565b5b600082013567ffffffffffffffff811115610bc057610bbf610a41565b5b610bcc84828501610b5e565b91505092915050565b610bde816109a2565b8114610be957600080fd5b50565b600081359050610bfb81610bd5565b92915050565b600060208284031215610c1757610c16610a3c565b5b6000610c2584828501610bec565b91505092915050565b6000610c39826109d6565b9050919050565b610c4981610c2e565b82525050565b600081519050919050565b60005b83811015610c78578082015181840152602081019050610c5d565b60008484015250505050565b6000610c8f82610c4f565b610c9981856108b9565b9350610ca9818560208601610c5a565b610cb281610a50565b840191505092915050565b6000608082019050610cd26000830187610c40565b8181036020830152610ce48186610c84565b9050610cf360408301856109ac565b610d0060608301846109ac565b95945050505050565b610d1281610c2e565b8114610d1d57600080fd5b50565b600081359050610d2f81610d09565b92915050565b60008060408385031215610d4c57610d4b610a3c565b5b6000610d5a85828601610d20565b9250506020610d6b85828601610bec565b9150509250929050565b7f4e487b7100000000000000000000000000000000000000000000000000000000600052602260045260246000fd5b60006002820490506001821680610dbc57607f821691505b602082108103610dcf57610dce610d75565b5b50919050565b60008190508160005260206000209050919050565b60006020601f8301049050919050565b600082821b905092915050565b600060088302610e377fffffffffffffffffffffffffffffffffffffffffffffffffffffffffffffffff82610dfa565b610e418683610dfa565b95508019841693508086168417925050509392505050565b6000819050919050565b6000610e7e610e79610e74846109a2565b610e59565b6109a2565b9050919050565b6000819050919050565b610e9883610e63565b610eac610ea482610e85565b848454610e07565b825550505050565b600090565b610ec1610eb4565b610ecc818484610e8f565b505050565b5b81811015610ef057610ee5600082610eb9565b600181019050610ed2565b5050565b601f821115610f3557610f0681610dd5565b610f0f84610dea565b81016020851015610f1e578190505b610f32610f2a85610dea565b830182610ed1565b50505b505050565b600082821c905092915050565b6000610f5860001984600802610f3a565b1980831691505092915050565b6000610f718383610f47565b9150826002028217905092915050565b610f8a82610c4f565b67ffffffffffffffff811115610fa357610fa2610a61565b5b610fad8254610da4565b610fb8828285610ef4565b600060209050601f831160018114610feb5760008415610fd9578287015190505b610fe38582610f65565b86555061104b565b601f198416610ff986610dd5565b60005b8281101561102157848901518255600182019150602085019450602081019050610ffc565b8683101561103e578489015161103a601f891682610f47565b8355505b6001600288020188555050505b505050505050565b600060408201905061106860008301856109ac565b818103602083015261107a8184610c84565b90509392505050565b7f4f6e6c79206f776e65722063616e20706572666f726d2074686973206163746960008201527f6f6e000000000000000000000000000000000000000000000000000000000000602082015250565b60006110df6022836108b9565b91506110ea82611083565b604082019050919050565b6000602082019050818103600083015261110e816110d2565b9050919050565b600081905092915050565b50565b6000611130600083611115565b915061113b82611120565b600082019050919050565b600061115182611123565b9150819050919050565b7f5472616e666572206661696c6564000000000000000000000000000000000000600082015250565b6000611191600e836108b9565b915061119c8261115b565b602082019050919050565b600060208201905081810360008301526111c081611184565b9050919050565b60006040820190506111dc60008301856109ac565b6111e960208301846109ac565b939250505056fe7472616e73616374696f6e2065786563757465642066726f6d2074686520726563656976652066756e6374696f6ea264697066735822122059ddc4aa0404c1eebe88b2b2173be63b0e859aadb936cb9320bd91c5f8e07a1864736f6c634300081c0033",
  "linkReferences": {},
  "deployedLinkReferences": {}
}